{
  "transactions": [
    {
      "hash": "0x0537c836cd21c049e7215d9d8bf70dc4d765175ac4125f350288ba65d59c4389",
      "transactionType": "CREATE",
      "contractName": "SprmToken",
      "contractAddress": "0x9a30294499b8784b80096b6c6dd87456972eca70",
      "function": null,
      "arguments": [
        "0x2D4575003f6017950C2f7a10aFb17bf2fBb648d2"
      ],
      "transaction": {
        "from": "0x2d4575003f6017950c2f7a10afb17bf2fbb648d2",
        "gas": "0x100239",
        "value": "0x0",
        "input": "0x6080346200031a57601f90601f196001600160401b036200103738819003858101841685018381118682101762000229578592829160405283396020948591810103126200031a5751926001600160a01b03841684036200031a57620000646200031e565b6200006e6200031e565b95815192848411620002295760039384546001948582811c921680156200030f575b84831014620002fb578185849311620002a8575b50839085831160011462000249575f926200023d575b50505f1982871b1c191690841b1784555b8751948511620002295760049586548481811c911680156200021e575b838210146200020b57838111620001c3575b50819286116001146200015957505083929183916200013c985f956200014d575b50501b925f19911b1c19161790555b62000135816200034f565b50620003bf565b50604051610b969081620004618239f35b015193505f806200011b565b8594929193951697865f52835f20935f905b8a8210620001ab575050846200013c991062000191575b50505050811b0190556200012a565b01519060f8845f19921b161c191690555f80808062000182565b8088859782949686015181550196019301906200016b565b875f52825f208480890160051c820192858a1062000201575b0160051c019085905b828110620001f5575050620000fa565b5f8155018590620001e5565b92508192620001dc565b602288634e487b7160e01b5f525260245ffd5b90607f1690620000e8565b634e487b7160e01b5f52604160045260245ffd5b015190505f80620000ba565b908987941691885f52855f20925f5b8782821062000291575050841162000279575b505050811b018455620000cb565b01515f1983891b60f8161c191690555f80806200026b565b8385015186558a9790950194938401930162000258565b909150865f52835f208580850160051c820192868610620002f1575b918891869594930160051c01915b828110620002e2575050620000a4565b5f8155859450889101620002d2565b92508192620002c4565b634e487b7160e01b5f52602260045260245ffd5b91607f169162000090565b5f80fd5b60408051919082016001600160401b03811183821017620002295760405260048252635350524d60e01b6020830152565b6001600160a01b03165f8181525f8051602062001017833981519152602052604090205460ff16620003ba575f8181525f805160206200101783398151915260205260408120805460ff191660011790553391905f8051602062000ff78339815191528180a4600190565b505f90565b6001600160a01b03165f8181527f15a28d26fa1bf736cf7edc9922607171ccb09c3c73b808e7772a3013e068a52260205260409020547f9f2df0fed2c77648de5860a4cc508cd0818c85b8b8a1ab4ceeef8d981c8956a6919060ff166200045a57815f52600560205260405f20815f5260205260405f20600160ff1982541617905533915f8051602062000ff78339815191525f80a4600190565b50505f9056fe6080604090808252600480361015610015575f80fd5b5f3560e01c91826301ffc9a71461088f5750816306fdde03146107b4578163095ea7b31461070c57816318160ddd146106ee57816323b872dd146105fc578163248a9ca3146105d25781632f2ff15d146105aa578163313ce5671461058f57816336568abe1461054b57816340c10f191461044957816342966c681461039657816370a082311461036057816391d148541461031c57816395d89b41146101fd578163a217fddf146101e3578163a9059cbb146101b3578163d539139314610179578163d547741f1461013d575063dd62ed3e146100f1575f80fd5b3461013957806003193601126101395760209061010c610928565b61011461093e565b9060018060a01b038091165f5260018452825f2091165f528252805f20549051908152f35b5f80fd5b82346101395780600319360112610139576101779135610172600161016061093e565b93835f5260056020525f200154610a2e565b610aec565b005b8234610139575f36600319011261013957602090517f9f2df0fed2c77648de5860a4cc508cd0818c85b8b8a1ab4ceeef8d981c8956a68152f35b82346101395780600319360112610139576020906101dc6101d2610928565b6024359033610954565b5160018152f35b8234610139575f36600319011261013957602090515f8152f35b8234610139575f366003190112610139578051905f835460018160011c9060018316928315610312575b60209384841081146102ff578388529081156102e3575060011461028f575b505050829003601f01601f191682019267ffffffffffffffff84118385101761027c57508291826102789252826108e1565b0390f35b604190634e487b7160e01b5f525260245ffd5b5f878152929350837f8a35acfbc15ff81a39ae7d344fd709f28e8600b4aa8c65c6b64bfe7fe36bd19b5b8385106102cf5750505050830101848080610246565b8054888601830152930192849082016102b9565b60ff1916878501525050151560051b8401019050848080610246565b602289634e487b7160e01b5f525260245ffd5b91607f1691610227565b823461013957806003193601126101395760209161033861093e565b90355f5260058352815f209060018060a01b03165f52825260ff815f20541690519015158152f35b8234610139576020366003190112610139576020906001600160a01b03610385610928565b165f525f8252805f20549051908152f35b823461013957602036600319011261013957813590331561043457335f525f602052805f2054928284106104085750815f933385528460205203818420558160025403600255519081527fddf252ad1be2c89b69c2b068fc378daa952ba7f163c4a11628f55a4df523b3ef60203392a3005b905163391434e360e21b8152339181019182526020820193909352604081019190915281906060010390fd5b51634b637e8f60e11b81525f81840152602490fd5b8234610139578060031936011261013957610462610928565b90602435917f9f2df0fed2c77648de5860a4cc508cd0818c85b8b8a1ab4ceeef8d981c8956a6805f526005602052825f20335f5260205260ff835f2054161561052d57506001600160a01b0316928315610518576002549083820180921161050557505f927fddf252ad1be2c89b69c2b068fc378daa952ba7f163c4a11628f55a4df523b3ef9260209260025585855284835280852082815401905551908152a3005b601190634e487b7160e01b5f525260245ffd5b5f602492519163ec442f0560e01b8352820152fd5b825163e2517d3f60e01b815233818701526024810191909152604490fd5b823461013957806003193601126101395761056461093e565b90336001600160a01b0383160361058057506101779135610aec565b5163334bd91960e11b81529050fd5b8234610139575f366003190112610139576020905160128152f35b823461013957806003193601126101395761017791356105cd600161016061093e565b610a6e565b823461013957602036600319011261013957602091355f52600582526001815f2001549051908152f35b90503461013957606036600319011261013957610617610928565b61061f61093e565b906044359260018060a01b038216805f526001602052855f20335f52602052855f2054915f19831061065a575b6020876101dc888888610954565b8583106106c25781156106ac57331561069657505f908152600160209081528682203383528152908690209185900390915582906101dc61064c565b6024905f885191634a1406b160e11b8352820152fd5b6024905f88519163e602df0560e01b8352820152fd5b8651637dc7a0d960e11b8152339181019182526020820193909352604081018690528291506060010390fd5b8234610139575f366003190112610139576020906002549051908152f35b8234610139578060031936011261013957610725610928565b60243590331561079e576001600160a01b03169081156107885760209350335f5260018452825f20825f52845280835f205582519081527f8c5be1e5ebec7d5bd14f71427d1e84f3dd0314c0f7b2291e5b200ac8c7c3b925843392a35160018152f35b8251634a1406b160e11b81525f81860152602490fd5b825163e602df0560e01b81525f81860152602490fd5b8234610139575f366003190112610139578051905f60035460018160011c9060018316928315610885575b60209384841081146102ff578388529081156102e3575060011461082f57505050829003601f01601f191682019267ffffffffffffffff84118385101761027c57508291826102789252826108e1565b60035f908152929350837fc2575a0e9e593c00f959f8c92f12db2869c3395a3b0502d05e2516446f71f85b5b8385106108715750505050830101848080610246565b80548886018301529301928490820161085b565b91607f16916107df565b903461013957602036600319011261013957359063ffffffff60e01b821680920361013957602091637965db0b60e01b81149081156108d0575b5015158152f35b6301ffc9a760e01b149050836108c9565b602080825282518183018190529093925f5b82811061091457505060409293505f838284010152601f8019910116010190565b8181018601518482016040015285016108f3565b600435906001600160a01b038216820361013957565b602435906001600160a01b038216820361013957565b916001600160a01b03808416928315610a1657169283156109fe57825f525f60205260405f2054908282106109cc5750817fddf252ad1be2c89b69c2b068fc378daa952ba7f163c4a11628f55a4df523b3ef92602092855f525f84520360405f2055845f5260405f20818154019055604051908152a3565b60405163391434e360e21b81526001600160a01b03919091166004820152602481019190915260448101829052606490fd5b60405163ec442f0560e01b81525f6004820152602490fd5b604051634b637e8f60e11b81525f6004820152602490fd5b805f52600560205260405f20335f5260205260ff60405f20541615610a505750565b6044906040519063e2517d3f60e01b82523360048301526024820152fd5b90815f52600560205260405f209060018060a01b031690815f5260205260ff60405f205416155f14610ae657815f52600560205260405f20815f5260205260405f20600160ff1982541617905533917f2f8788117e7eff1d82e926ec794901d17c78024a50270940304540a733656f0d5f80a4600190565b50505f90565b90815f52600560205260405f209060018060a01b031690815f5260205260ff60405f2054165f14610ae657815f52600560205260405f20815f5260205260405f2060ff19815416905533917ff6391f5c32d9c69d2a47ea670b442974b53935d1edc7fd64eb21e047a839171b5f80a460019056fea264697066735822122083f93bf0120bdcbd4004ac2543dab20eabd155f8e3572a7a006810a7a15bc5e564736f6c634300081800332f8788117e7eff1d82e926ec794901d17c78024a50270940304540a733656f0d05b8ccbb9d4d8fb16ea74ce3c29a41f1b461fbdaff4714a0d9a8eb05499746bc0000000000000000000000002d4575003f6017950c2f7a10afb17bf2fbb648d2",
        "nonce": "0x35",
        "chainId": "0xa869"
      },
      "additionalContracts": [],
      "isFixedGasLimit": false
    },
    {
      "hash": "0xc5b06ee1f95030f66f1eaa03fda091dd457f0b7a491193e50e7fb8ae6e55e84a",
      "transactionType": "CREATE",
      "contractName": "SprmFaucet",
      "contractAddress": "0x50fef1bca8686302ca7dac9d596af121a288855b",
      "function": null,
      "arguments": [
        "0x9a30294499b8784b80096b6C6Dd87456972eCA70"
      ],
      "transaction": {
        "from": "0x2d4575003f6017950c2f7a10afb17bf2fbb648d2",
        "gas": "0x867d9",
        "value": "0x0",
        "input": "0x60a0346100de57601f61065f38819003918201601f19168301916001600160401b038311848410176100e2578084926020946040528339810103126100de57516001600160a01b0390818116908190036100de5733156100c6575f543360018060a01b03198216175f55604051923391167f8be0079c531659141344cd1fd0a4f28419497f9722a3daafe3b4186f6b6457e05f80a36802b5e3af16b18800006001556201518060025560805261056890816100f7823960805181818160ac015261039b0152f35b604051631e4fbdf760e01b81525f6004820152602490fd5b5f80fd5b634e487b7160e01b5f52604160045260245ffdfe60406080815260049081361015610014575f80fd5b5f915f3560e01c9081634e71d92d146103555781634fc3f41a146103015781635c16e15e146102c7578163715018a61461026e578163787a08a61461024f578163830953ab146102305781638da5cb5b1461020857816392d82dbe146101cd578163b1c7ef0c14610179578163f2fde38b146100df575063fc0c546a14610099575f80fd5b346100db57816003193601126100db57517f00000000000000000000000000000000000000000000000000000000000000006001600160a01b03168152602090f35b5080fd5b91905034610175576020366003190112610175576001600160a01b0382358181169391929084900361017157610113610507565b831561015b5750505f54826bffffffffffffffffffffffff60a01b8216175f55167f8be0079c531659141344cd1fd0a4f28419497f9722a3daafe3b4186f6b6457e05f80a380f35b51631e4fbdf760e01b8152908101849052602490fd5b8480fd5b8280fd5b905034610175576020366003190112610175577fc22e16deec6f587d0a1aad7275c1621e6c24431fea14dd71e8f3243e9fbc5ca39035916101b8610507565b6001548151908152836020820152a160015580f35b9050346101755760203660031901126101755735916001600160a01b038316830361020557506101fe6020926104ca565b9051908152f35b80fd5b5050346100db57816003193601126100db57905490516001600160a01b039091168152602090f35b5050346100db57816003193601126100db576020906001549051908152f35b5050346100db57816003193601126100db576020906002549051908152f35b8334610205578060031936011261020557610287610507565b5f80546001600160a01b0319811682556001600160a01b03167f8be0079c531659141344cd1fd0a4f28419497f9722a3daafe3b4186f6b6457e08280a380f35b90503461017557602036600319011261017557356001600160a01b0381169081900361017557828291602094526003845220549051908152f35b905034610175576020366003190112610175577f5953b565c074c2cce1866b4e69c9efc4908556bb6fca70f735907c94d9405515903591610340610507565b6002548151908152836020820152a160025580f35b905034610463575f36600319011261046357335f52600360205261037f825f2054600254906104a9565b421061046757335f52600360205242825f205560018060a01b037f00000000000000000000000000000000000000000000000000000000000000001690600154823b15610463575f9260448492865195869384926340c10f1960e01b8452338885015260248401525af1801561045957610427575b505060015490519081527fd8138f8a3f377c5259ca548e70e4c2de94f129f5a11036a15b69513cba2b426a60203392a280f35b9091925067ffffffffffffffff8211610446575081525f905f806103f4565b604190634e487b7160e01b5f525260245ffd5b83513d5f823e3d90fd5b5f80fd5b6020606492519162461bcd60e51b8352820152601c60248201527f4661756365743a20636f6f6c646f776e206e6f7420656c6170736564000000006044820152fd5b919082018092116104b657565b634e487b7160e01b5f52601160045260245ffd5b6001600160a01b03165f908152600360205260409020546002546104ed916104a9565b80421015610502574281039081116104b65790565b505f90565b5f546001600160a01b0316330361051a57565b60405163118cdaa760e01b8152336004820152602490fdfea264697066735822122074d2d9865a89974e58619413f8b257ebd95ce0c5eda8b3ffd2fff644f13c545264736f6c634300081800330000000000000000000000009a30294499b8784b80096b6c6dd87456972eca70",
        "nonce": "0x36",
        "chainId": "0xa869"
      },
      "additionalContracts": [],
      "isFixedGasLimit": false
    },
    {
      "hash": "0xfe32af0ddfaab07b2a424ca38907bff3287b91c754a007cb0b62fbc64ed2dbc1",
      "transactionType": "CALL",
      "contractName": "SprmToken",
      "contractAddress": "0x9a30294499b8784b80096b6c6dd87456972eca70",
      "function": "grantRole(bytes32,address)",
      "arguments": [
        "0x9f2df0fed2c77648de5860a4cc508cd0818c85b8b8a1ab4ceeef8d981c8956a6",
        "0x50fEF1bCA8686302ca7Dac9D596aF121A288855B"
      ],
      "transaction": {
        "from": "0x2d4575003f6017950c2f7a10afb17bf2fbb648d2",
        "to": "0x9a30294499b8784b80096b6c6dd87456972eca70",
        "gas": "0x11426",
        "value": "0x0",
        "input": "0x2f2ff15d9f2df0fed2c77648de5860a4cc508cd0818c85b8b8a1ab4ceeef8d981c8956a600000000000000000000000050fef1bca8686302ca7dac9d596af121a288855b",
        "nonce": "0x37",
        "chainId": "0xa869"
      },
      "additionalContracts": [],
      "isFixedGasLimit": false
    },
    {
      "hash": "0xa00127c7cb60a3493646c7f5131c7e6288fe402bb066867545157d31b1c87cbb",
      "transactionType": "CREATE",
      "contractName": "SprmGameSimple",
      "contractAddress": "0x2327d3611694ead7bff9075ecc362dc982926d3c",
      "function": null,
      "arguments": [
        "0x9a30294499b8784b80096b6C6Dd87456972eCA70",
        "0x2D4575003f6017950C2f7a10aFb17bf2fBb648d2",
        "0x2D4575003f6017950C2f7a10aFb17bf2fBb648d2",
        "200"
      ],
      "transaction": {
        "from": "0x2d4575003f6017950c2f7a10afb17bf2fbb648d2",
        "gas": "0x1a966b",
        "value": "0x0",
        "input": "0x60a0346200024757601f620017ef38819003918201601f191683019291906001600160401b038411838510176200024b578160809284926040968752833981010312620002475762000051816200025f565b9062000060602082016200025f565b60606200006f8584016200025f565b9201519061ffff8216908183036200024757331562000230575f549060018060a01b03908160018060a01b03199733898616175f55895194823391167f8be0079c531659141344cd1fd0a4f28419497f9722a3daafe3b4186f6b6457e05f80a360018055169283156200020157508116948515620001cd571691821562000199576103e8106200016a5760805260035493600254161760025561ffff60a01b9060a01b169160018060b01b03191617176003555161157a9081620002758239608051818181610166015281816103be0152818161092c01528181610cb001528181610de901528181610eac01528181610f7d01526110e60152f35b855162461bcd60e51b8152602060048201526008602482015267656467653e31302560c01b6044820152606490fd5b865162461bcd60e51b815260206004820152600d60248201526c3d32b937903932b9b7b63b32b960991b6044820152606490fd5b875162461bcd60e51b815260206004820152600d60248201526c7a65726f20747265617375727960981b6044820152606490fd5b62461bcd60e51b815260206004820152600a6024820152693d32b937903a37b5b2b760b11b6044820152606490fd5b8551631e4fbdf760e01b81525f6004820152602490fd5b5f80fd5b634e487b7160e01b5f52604160045260245ffd5b51906001600160a01b0382168203620002475756fe6080604090808252600480361015610015575f80fd5b5f3560e01c918262998421146111365750816304cbbf8b146110c9578163096b4254146110a1578163150417be1461107a57816322af00fa14610ffd5781632d22ed1214610f505781633a10349b14610ed25781633e701d5a14610e7e57816350d6756c14610b2e578163568ae2a314610b0b57816358fd6f15146108a7578163607caf831461088b57816361d027b314610863578163715018a61461080c5781637406260e1461076d5781637494e70f146106b557816382944e2d1461069857816388baa6a0146105315781638da5cb5b1461050a5781639838fd8614610481578163a416f5ab14610465578163afb88cda146102fb578163e7d36428146102ad578163eacdc5ff1461028f578163f0f4426014610241578163f2fde38b146101b757508063f522ad11146101995763fc0c546a14610153575f80fd5b34610195575f36600319011261019557517f00000000000000000000000000000000000000000000000000000000000000006001600160a01b03168152602090f35b5f80fd5b5034610195575f366003190112610195576020906005549051908152f35b8234610195576020366003190112610195576001600160a01b03823581811693919290849003610195576101e9611302565b831561022b5750505f54826001600160601b0360a01b8216175f55167f8be0079c531659141344cd1fd0a4f28419497f9722a3daafe3b4186f6b6457e05f80a3005b905f6024925191631e4fbdf760e01b8352820152fd5b3461019557602036600319011261019557356001600160a01b038116908190036101955761026d611302565b610278811515611277565b6001600160601b0360a01b60035416176003555f80f35b8234610195575f366003190112610195576020906006549051908152f35b3461019557602036600319011261019557356001600160a01b03811690819003610195576102d9611302565b6102e4811515611277565b6001600160601b0360a01b60025416176002555f80f35b905034610195576020806003193601126101955781359161031a61137d565b825f5260088252835f209061033960018060a01b03835416331461120d565b600282019081549061035060ff83891c161561118d565b855f5260098552865f20541561043257855f5260098552865f20546202a300810180911161041f5742106103f1575060ff60401b1916600160401b17905560010180547f833077ddb560efc217319d58c7cbb7822774657ca007c9e9acc438ddfedfa7279291906103e290337f000000000000000000000000000000000000000000000000000000000000000061132d565b5493519384523393a360018055005b865162461bcd60e51b815290810185905260086024820152670eec2d2e8406870d60c31b6044820152606490fd5b601182634e487b7160e01b5f525260245ffd5b865162461bcd60e51b8152908101859052600d60248201526c1b9bdd081c995c5d595cdd1959609a1b6044820152606490fd5b8234610195575f36600319011261019557602091549051908152f35b9050346101955760203660031901126101955760207fae3caf926eae93c6f19b0836d417f800c2bfa145c6a5c27d8420c405b56fa96891356104d860018060a01b03806002541633149081156104fd575b50611242565b6104e36006546111ff565b93846006558160055560ff196007541660075551908152a2005b90505f541633145f6104d2565b8234610195575f366003190112610195575f5490516001600160a01b039091168152602090f35b8234610195576020806003193601126101955760025483359061056890336001600160a01b039182161490811561068b5750611242565b6007549360ff851661066357835182848201528381528481019080821067ffffffffffffffff831117610650579080859187528251925f935b808510610639575f93945081018389820152039060025afa1561062f575f5160055403610601575060017f8586721942da8353acca3de00c74b7c93b7a07d097d94e8d86a5fa74ea40f804939460ff1916176007556006549351908152a2005b835162461bcd60e51b81529081018390526008602482015267189859081cd9595960c21b6044820152606490fd5b83513d5f823e3d90fd5b81850180850151908a0152929093019286926105a1565b604183634e487b7160e01b5f525260245ffd5b9050606492519162461bcd60e51b8352818301526024820152631d5cd95960e21b6044820152fd5b90505f54163314866104d2565b8234610195575f36600319011261019557602090516202a3008152f35b823461019557602036600319011261019557813591825f5260086020526106fb60ff6002845f206106f060018060a01b03825416331461120d565b0154841c161561118d565b825f526009602052815f20546107415750815f52600960205242905f205533907f2b56a12909e6b86818b7507ebcd7a7fdb9738b2b0ce52bb389035dbd6f99ca835f80a3005b6020606492519162461bcd60e51b8352820152600760248201526670656e64696e6760c81b6044820152fd5b9050346101955760203660031901126101955780355f526008602052815f209060018060a01b03825416156107e457602083620f42406107dc60026107c48760018101549061ffff938491015460301c16906111c4565b906107d58160035460a01c166111eb565b16906111c4565b049051908152f35b606490602084519162461bcd60e51b83528201526002602482015261373360f11b6044820152fd5b34610195575f36600319011261019557610824611302565b5f80546001600160a01b0319811682556001600160a01b03167f8be0079c531659141344cd1fd0a4f28419497f9722a3daafe3b4186f6b6457e08280a3005b8234610195575f3660031901126101955760035490516001600160a01b039091168152602090f35b8234610195575f36600319011261019557602090516103e88152f35b9050346101955760803660031901126101955780359163ffffffff928381168091036101955760243561ffff8082168092036101955760443590811680910361019557606435916108f661137d565b8215610add576101f4811015610ab057606582101580610aa4575b15610a765761092086546111ff565b958681556109508430337f00000000000000000000000000000000000000000000000000000000000000006112a7565b85519060e082019082821067ffffffffffffffff831117610a6357508760209960039289523384528a840190878252898501918983526060860191878352608087019089825260a08801925f845260c08901964288525f528f600890528d5f209860018060a01b039051166001600160601b0360a01b8a54161789555160018901556002880194511668ff00000000000000008d67ffff00000000000065ffff000000008854975160201b16945160301b1694511515901b169368ffffffffffffffffff191617171717905551910155845193845286840152838301526060820152827f87dcfdf5db4fbb85e6bde5cf543d732d7f15f239b7ae54ba34239f15411646c960803393a36001805551908152f35b604190634e487b7160e01b5f525260245ffd5b845162461bcd60e51b8152602081880152600860248201526736bab63a1027a7a160c11b6044820152606490fd5b506107d0821115610911565b845162461bcd60e51b815260208188015260076024820152663937bb9027a7a160c91b6044820152606490fd5b845162461bcd60e51b815260208188015260086024820152670616d6f756e743d360c41b6044820152606490fd5b8234610195575f3660031901126101955760209060ff6007541690519015158152f35b905034610195576060366003190112610195578035602492833592831515908185036101955760443567ffffffffffffffff8082116101955736602383011215610195578183013591818311610195573689848301011161019557610b9161137d565b865f5260209760088952865f209260018060a01b03948585541615610e50579088918b8d6002880196610bcb60ff895480981c161561118d565b8c519283018e815260f88d901b848f015230606090811b604186015260358552840195861184871017610e3e578f929486948f610c5f975f95608095610c689b869452845190207f19457468657265756d205369676e6564204d6573736167653a0a3332000000008852601c52610c4f603c882098601f19601f860116018a611157565b8289520184830137010152611405565b9092919261143f565b858060025416911603610e125760ff60401b1916600160401b1782555f9015610db15750610cac620f4240916107c4600185015461ffff80935460301c16906111c4565b04927f00000000000000000000000000000000000000000000000000000000000000009883898b838a51809481936370a0823160e01b83523089840152165afa908115610da7579086915f91610d76575b5010610d49575050610d37837fd1a7f8e02608013b9bd7679e3e05ad532e9c83829a935961f6eb37606a252585979899848454169061132d565b5416958351928352820152a360018055005b865162461bcd60e51b8152918201899052600890820152676c6f772062616e6b60c01b6044820152606490fd5b8092508b8092503d8311610da0575b610d8f8183611157565b81010312610195578590515f610cfd565b503d610d85565b88513d5f823e3d90fd5b9350507fd1a7f8e02608013b9bd7679e3e05ad532e9c83829a935961f6eb37606a25258595969750610e0d82600354166001830154907f000000000000000000000000000000000000000000000000000000000000000061132d565b610d37565b875162461bcd60e51b81528087018b90526007818d0152666261642073696760c81b6044820152606490fd5b8260418d634e487b7160e01b5f52525ffd5b885162461bcd60e51b81528088018c90526009818e0152681b9bdd08199bdd5b9960ba1b6044820152606490fd5b3461019557602036600319011261019557610ed090610e9b611302565b6003549035906001600160a01b03167f000000000000000000000000000000000000000000000000000000000000000061132d565b005b9050346101955760203660031901126101955780359161ffff8316808403610195576103e890610f00611302565b11610f22576003805461ffff60a01b191660a085901b61ffff60a01b16179055005b906020606492519162461bcd60e51b83528201526008602482015267656467653e31302560c01b6044820152fd5b8234610195575f3660031901126101955780516370a0823160e01b815230928101929092526020826024817f00000000000000000000000000000000000000000000000000000000000000006001600160a01b03165afa908115610ff4575f91610fbf575b6020925051908152f35b90506020823d602011610fec575b81610fda60209383611157565b81010312610195576020915190610fb5565b3d9150610fcd565b513d5f823e3d90fd5b82346101955760203660031901126101955760e091355f526008602052805f209060ff60018060a01b0383541692600181015492600282015491600361ffff910154948251968752602087015263ffffffff831682870152808360201c1660608701528260301c1660808601521c16151560a083015260c0820152f35b823461019557602036600319011261019557602091355f5260098252805f20549051908152f35b8234610195575f3660031901126101955760025490516001600160a01b039091168152602090f35b90503461019557602036600319011261019557359061110a8230337f00000000000000000000000000000000000000000000000000000000000000006112a7565b519081527f2d4fdc6f1991164156fe19d5c495895af017187803b56bddd67de1bd212fafee60203392a2005b34610195575f3660031901126101955760209061ffff60035460a01c168152f35b90601f8019910116810190811067ffffffffffffffff82111761117957604052565b634e487b7160e01b5f52604160045260245ffd5b1561119457565b60405162461bcd60e51b81526020600482015260086024820152671c995cdbdb1d995960c21b6044820152606490fd5b818102929181159184041417156111d757565b634e487b7160e01b5f52601160045260245ffd5b9061ffff809216612710039182116111d757565b5f1981146111d75760010190565b1561121457565b60405162461bcd60e51b815260206004820152600660248201526510b7bbb732b960d11b6044820152606490fd5b1561124957565b60405162461bcd60e51b81526020600482015260066024820152650eadcc2eae8d60d31b6044820152606490fd5b1561127e57565b60405162461bcd60e51b81526020600482015260016024820152600360fc1b6044820152606490fd5b6040516323b872dd60e01b60208201526001600160a01b03928316602482015292909116604483015260648083019390935291815260a081019181831067ffffffffffffffff84111761117957611300926040526113a0565b565b5f546001600160a01b0316330361131557565b60405163118cdaa760e01b8152336004820152602490fd5b60405163a9059cbb60e01b60208201526001600160a01b039092166024830152604480830193909352918152608081019167ffffffffffffffff83118284101761117957611300926040526113a0565b60026001541461138e576002600155565b604051633ee5aeb560e01b8152600490fd5b905f602091828151910182855af1156113fa575f513d6113f157506001600160a01b0381163b155b6113cf5750565b604051635274afe760e01b81526001600160a01b039091166004820152602490fd5b600114156113c8565b6040513d5f823e3d90fd5b81519190604183036114355761142e9250602082015190606060408401519301515f1a906114c2565b9192909190565b50505f9160029190565b60048110156114ae5780611451575050565b6001810361146b5760405163f645eedf60e01b8152600490fd5b6002810361148c5760405163fce698f760e01b815260048101839052602490fd5b6003146114965750565b602490604051906335e2f38360e21b82526004820152fd5b634e487b7160e01b5f52602160045260245ffd5b91907f7fffffffffffffffffffffffffffffff5d576e7357a4501ddfe92f46681b20a08411611539579160209360809260ff5f9560405194855216868401526040830152606082015282805260015afa156113fa575f516001600160a01b0381161561152f57905f905f90565b505f906001905f90565b5050505f916003919056fea264697066735822122095e9cf13431a6bfb7a1870a501d3fb4e847944ddb087427dc9737ea0e43d2e2a64736f6c634300081800330000000000000000000000009a30294499b8784b80096b6c6dd87456972eca700000000000000000000000002d4575003f6017950c2f7a10afb17bf2fbb648d20000000000000000000000002d4575003f6017950c2f7a10afb17bf2fbb648d200000000000000000000000000000000000000000000000000000000000000c8",
        "nonce": "0x38",
        "chainId": "0xa869"
      },
      "additionalContracts": [],
      "isFixedGasLimit": false
    },
    {
      "hash": "0xb74b095abe9ac1d2fcc46be13653db2dcfda7fe92a733c60e611fa7b73a0fc4a",
      "transactionType": "CALL",
      "contractName": "SprmToken",
      "contractAddress": "0x9a30294499b8784b80096b6c6dd87456972eca70",
      "function": "grantRole(bytes32,address)",
      "arguments": [
        "0x9f2df0fed2c77648de5860a4cc508cd0818c85b8b8a1ab4ceeef8d981c8956a6",
        "0x2327D3611694ead7Bff9075eCc362dc982926d3C"
      ],
      "transaction": {
        "from": "0x2d4575003f6017950c2f7a10afb17bf2fbb648d2",
        "to": "0x9a30294499b8784b80096b6c6dd87456972eca70",
        "gas": "0x11426",
        "value": "0x0",
        "input": "0x2f2ff15d9f2df0fed2c77648de5860a4cc508cd0818c85b8b8a1ab4ceeef8d981c8956a60000000000000000000000002327d3611694ead7bff9075ecc362dc982926d3c",
        "nonce": "0x39",
        "chainId": "0xa869"
      },
      "additionalContracts": [],
      "isFixedGasLimit": false
    },
    {
      "hash": "0x398f6081938a0831785fa2aeef64a337c38c93bdc30b0639f3ce158e94fed093",
      "transactionType": "CALL",
      "contractName": "SprmToken",
      "contractAddress": "0x9a30294499b8784b80096b6c6dd87456972eca70",
      "function": "mint(address,uint256)",
      "arguments": [
        "0x2D4575003f6017950C2f7a10aFb17bf2fBb648d2",
        "1000000000000000000000000"
      ],
      "transaction": {
        "from": "0x2d4575003f6017950c2f7a10afb17bf2fbb648d2",
        "to": "0x9a30294499b8784b80096b6c6dd87456972eca70",
        "gas": "0x19285",
        "value": "0x0",
        "input": "0x40c10f190000000000000000000000002d4575003f6017950c2f7a10afb17bf2fbb648d200000000000000000000000000000000000000000000d3c21bcecceda1000000",
        "nonce": "0x3a",
        "chainId": "0xa869"
      },
      "additionalContracts": [],
      "isFixedGasLimit": false
    },
    {
      "hash": "0x9ed351c71ec3885025e797344e48a34fe5d130c248bffe81d770bac0380d58aa",
      "transactionType": "CALL",
      "contractName": "SprmToken",
      "contractAddress": "0x9a30294499b8784b80096b6c6dd87456972eca70",
      "function": "approve(address,uint256)",
      "arguments": [
        "0x2327D3611694ead7Bff9075eCc362dc982926d3C",
        "1000000000000000000000000"
      ],
      "transaction": {
        "from": "0x2d4575003f6017950c2f7a10afb17bf2fbb648d2",
        "to": "0x9a30294499b8784b80096b6c6dd87456972eca70",
        "gas": "0xf838",
        "value": "0x0",
        "input": "0x095ea7b30000000000000000000000002327d3611694ead7bff9075ecc362dc982926d3c00000000000000000000000000000000000000000000d3c21bcecceda1000000",
        "nonce": "0x3b",
        "chainId": "0xa869"
      },
      "additionalContracts": [],
      "isFixedGasLimit": false
    },
    {
      "hash": "0xe7308ab690b16658b1fff2e4be7f5163863de69f73247c8ab21139fb0125abac",
      "transactionType": "CALL",
      "contractName": "SprmGameSimple",
      "contractAddress": "0x2327d3611694ead7bff9075ecc362dc982926d3c",
      "function": "fundHouseBank(uint256)",
      "arguments": [
        "1000000000000000000000000"
      ],
      "transaction": {
        "from": "0x2d4575003f6017950c2f7a10afb17bf2fbb648d2",
        "to": "0x2327d3611694ead7bff9075ecc362dc982926d3c",
        "gas": "0x1148b",
        "value": "0x0",
        "input": "0x04cbbf8b00000000000000000000000000000000000000000000d3c21bcecceda1000000",
        "nonce": "0x3c",
        "chainId": "0xa869"
      },
      "additionalContracts": [],
      "isFixedGasLimit": false
    }
  ],
  "receipts": [
    {
      "status": "0x1",
      "cumulativeGasUsed": "0xc507b",
      "logs": [
        {
          "address": "0x9a30294499b8784b80096b6c6dd87456972eca70",
          "topics": [
            "0x2f8788117e7eff1d82e926ec794901d17c78024a50270940304540a733656f0d",
            "0x0000000000000000000000000000000000000000000000000000000000000000",
            "0x0000000000000000000000002d4575003f6017950c2f7a10afb17bf2fbb648d2",
            "0x0000000000000000000000002d4575003f6017950c2f7a10afb17bf2fbb648d2"
          ],
          "data": "0x",
          "blockHash": "0xae5cd9b7f8d8b072888ee926d434788c4386cee043b9c366f595132b028877ea",
          "blockNumber": "0x31ef111",
          "transactionHash": "0xb74b095abe9ac1d2fcc46be13653db2dcfda7fe92a733c60e611fa7b73a0fc4a",
          "transactionIndex": "0x0",
          "logIndex": "0x0",
          "removed": false
        },
        {
          "address": "0x9a30294499b8784b80096b6c6dd87456972eca70",
          "topics": [
            "0x2f8788117e7eff1d82e926ec794901d17c78024a50270940304540a733656f0d",
            "0x9f2df0fed2c77648de5860a4cc508cd0818c85b8b8a1ab4ceeef8d981c8956a6",
            "0x0000000000000000000000002d4575003f6017950c2f7a10afb17bf2fbb648d2",
            "0x0000000000000000000000002d4575003f6017950c2f7a10afb17bf2fbb648d2"
          ],
          "data": "0x",
          "blockHash": "0xae5cd9b7f8d8b072888ee926d434788c4386cee043b9c366f595132b028877ea",
          "blockNumber": "0x31ef111",
          "transactionHash": "0xb74b095abe9ac1d2fcc46be13653db2dcfda7fe92a733c60e611fa7b73a0fc4a",
          "transactionIndex": "0x0",
          "logIndex": "0x1",
          "removed": false
        }
      ],
      "logsBloom": "0x00000004000000000000000000000000000000000000000000000000000000000000000000000000000000000000004000000000000000000000000000000000000000000000000000000000000000000001000000000000000000000000000000000000020000000000000000000800000000000000800010000000001000000000000000000000000000000000000000000000000000000000800000000000000000000000000000000000000000000000000000000000001000000000000000000000000000000000000000000000001000000000000100000000000020000000000040002000000000000000000000000000000000000000000000000000",
      "type": "0x2",
      "transactionHash": "0xb74b095abe9ac1d2fcc46be13653db2dcfda7fe92a733c60e611fa7b73a0fc4a",
      "transactionIndex": "0x0",
      "blockHash": "0xae5cd9b7f8d8b072888ee926d434788c4386cee043b9c366f595132b028877ea",
      "blockNumber": "0x31ef111",
      "gasUsed": "0xc507b",
      "effectiveGasPrice": "0x3",
      "from": "0x2d4575003f6017950c2f7a10afb17bf2fbb648d2",
      "to": null,
      "contractAddress": "0x9a30294499b8784b80096b6c6dd87456972eca70"
    },
    {
      "status": "0x1",
      "cumulativeGasUsed": "0x12c7c0",
      "logs": [
        {
          "address": "0x50fef1bca8686302ca7dac9d596af121a288855b",
          "topics": [
            "0x8be0079c531659141344cd1fd0a4f28419497f9722a3daafe3b4186f6b6457e0",
            "0x0000000000000000000000000000000000000000000000000000000000000000",
            "0x0000000000000000000000002d4575003f6017950c2f7a10afb17bf2fbb648d2"
          ],
          "data": "0x",
          "blockHash": "0xae5cd9b7f8d8b072888ee926d434788c4386cee043b9c366f595132b028877ea",
          "blockNumber": "0x31ef111",
          "transactionHash": "0x0537c836cd21c049e7215d9d8bf70dc4d765175ac4125f350288ba65d59c4389",
          "transactionIndex": "0x1",
          "logIndex": "0x2",
          "removed": false
        }
      ],
      "logsBloom": "0x00000000000000000000000000000000000000000000000000800000000000000000000000000000000000000000000000000000000000000000000000000000000000000000000000000000000000000001000000000000000000000000000000000000020000000000000000000800000000000000800010000000000000400000000000000000000000000000000000000000000000000000810000000004000000000000000000000000000000000000000000000000000000000000000000000000000000000000080000000000000000000000000000000000000020000000000000000000000000000000000000000000000000000000000000000000",
      "type": "0x2",
      "transactionHash": "0x0537c836cd21c049e7215d9d8bf70dc4d765175ac4125f350288ba65d59c4389",
      "transactionIndex": "0x1",
      "blockHash": "0xae5cd9b7f8d8b072888ee926d434788c4386cee043b9c366f595132b028877ea",
      "blockNumber": "0x31ef111",
      "gasUsed": "0x67745",
      "effectiveGasPrice": "0x3",
      "from": "0x2d4575003f6017950c2f7a10afb17bf2fbb648d2",
      "to": null,
      "contractAddress": "0x50fef1bca8686302ca7dac9d596af121a288855b"
    },
    {
      "status": "0x1",
      "cumulativeGasUsed": "0x138fae",
      "logs": [
        {
          "address": "0x9a30294499b8784b80096b6c6dd87456972eca70",
          "topics": [
            "0x2f8788117e7eff1d82e926ec794901d17c78024a50270940304540a733656f0d",
            "0x9f2df0fed2c77648de5860a4cc508cd0818c85b8b8a1ab4ceeef8d981c8956a6",
            "0x00000000000000000000000050fef1bca8686302ca7dac9d596af121a288855b",
            "0x0000000000000000000000002d4575003f6017950c2f7a10afb17bf2fbb648d2"
          ],
          "data": "0x",
          "blockHash": "0xae5cd9b7f8d8b072888ee926d434788c4386cee043b9c366f595132b028877ea",
          "blockNumber": "0x31ef111",
          "transactionHash": "0xa00127c7cb60a3493646c7f5131c7e6288fe402bb066867545157d31b1c87cbb",
          "transactionIndex": "0x2",
          "logIndex": "0x3",
          "removed": false
        }
      ],
      "logsBloom": "0x00000004000000000000000000000000000000000000000000000001000000000000000000000000000000000000004000000000000000000000000000000000000000000000000000000000000000000001000000000000000000000000000000000000000000000000000000000000000000000000800010000000001000000000000000000000000000000000080000000000000000000000800000000000000000000000000000000000000000000000000000000000001000000000000000000000040000000000000000000000001000000000000100000000000000000000000040002000000000000000000000000000000000000000000000000000",
      "type": "0x2",
      "transactionHash": "0xa00127c7cb60a3493646c7f5131c7e6288fe402bb066867545157d31b1c87cbb",
      "transactionIndex": "0x2",
      "blockHash": "0xae5cd9b7f8d8b072888ee926d434788c4386cee043b9c366f595132b028877ea",
      "blockNumber": "0x31ef111",
      "gasUsed": "0xc7ee",
      "effectiveGasPrice": "0x3",
      "from": "0x2d4575003f6017950c2f7a10afb17bf2fbb648d2",
      "to": "0x9a30294499b8784b80096b6c6dd87456972eca70",
      "contractAddress": null
    },
    {
      "status": "0x1",
      "cumulativeGasUsed": "0x280363",
      "logs": [
        {
          "address": "0x2327d3611694ead7bff9075ecc362dc982926d3c",
          "topics": [
            "0x8be0079c531659141344cd1fd0a4f28419497f9722a3daafe3b4186f6b6457e0",
            "0x0000000000000000000000000000000000000000000000000000000000000000",
            "0x0000000000000000000000002d4575003f6017950c2f7a10afb17bf2fbb648d2"
          ],
          "data": "0x",
          "blockHash": "0xae5cd9b7f8d8b072888ee926d434788c4386cee043b9c366f595132b028877ea",
          "blockNumber": "0x31ef111",
          "transactionHash": "0xe7308ab690b16658b1fff2e4be7f5163863de69f73247c8ab21139fb0125abac",
          "transactionIndex": "0x3",
          "logIndex": "0x4",
          "removed": false
        }
      ],
      "logsBloom": "0x00000000000000000000000000000000000000000000000000800000800000000000000040020000000000000000000000000000000000000000000000000000000000000000000000000000000000000001000000000000000000000000000000000000020000000000000000000800000000000000800010000000000000400000000000000000000000000000000000000000000000000000800000000000000000000000000000000000000000000000000000000000000000000000000000000000000000000000000000000000000000000000000000000000000020000000000000000000000000000000000000000000000000000000000000000000",
      "type": "0x2",
      "transactionHash": "0xe7308ab690b16658b1fff2e4be7f5163863de69f73247c8ab21139fb0125abac",
      "transactionIndex": "0x3",
      "blockHash": "0xae5cd9b7f8d8b072888ee926d434788c4386cee043b9c366f595132b028877ea",
      "blockNumber": "0x31ef111",
      "gasUsed": "0x1473b5",
      "effectiveGasPrice": "0x3",
      "from": "0x2d4575003f6017950c2f7a10afb17bf2fbb648d2",
      "to": null,
      "contractAddress": "0x2327d3611694ead7bff9075ecc362dc982926d3c"
    },
    {
      "status": "0x1",
      "cumulativeGasUsed": "0x28cb51",
      "logs": [
        {
          "address": "0x9a30294499b8784b80096b6c6dd87456972eca70",
          "topics": [
            "0x2f8788117e7eff1d82e926ec794901d17c78024a50270940304540a733656f0d",
            "0x9f2df0fed2c77648de5860a4cc508cd0818c85b8b8a1ab4ceeef8d981c8956a6",
            "0x0000000000000000000000002327d3611694ead7bff9075ecc362dc982926d3c",
            "0x0000000000000000000000002d4575003f6017950c2f7a10afb17bf2fbb648d2"
          ],
          "data": "0x",
          "blockHash": "0xae5cd9b7f8d8b072888ee926d434788c4386cee043b9c366f595132b028877ea",
          "blockNumber": "0x31ef111",
          "transactionHash": "0xfe32af0ddfaab07b2a424ca38907bff3287b91c754a007cb0b62fbc64ed2dbc1",
          "transactionIndex": "0x4",
          "logIndex": "0x5",
          "removed": false
        }
      ],
      "logsBloom": "0x00000004020000000000000000000000000000000020000000000000000000000000000000000000000000000000004000000000000000000000000000000000000020000000000000000000000000000001000000000000000000000000000000000000000000000000000000000000000000000000800010000000001000000000000000000000000000000000000000000000000000000000800000000000000000000000000000000000000000000000000000000000001000000000000000000000000000000000000000000000001000000000000100000000000000000000000040002000000000000000000000000000000000000000000000000000",
      "type": "0x2",
      "transactionHash": "0xfe32af0ddfaab07b2a424ca38907bff3287b91c754a007cb0b62fbc64ed2dbc1",
      "transactionIndex": "0x4",
      "blockHash": "0xae5cd9b7f8d8b072888ee926d434788c4386cee043b9c366f595132b028877ea",
      "blockNumber": "0x31ef111",
      "gasUsed": "0xc7ee",
      "effectiveGasPrice": "0x3",
      "from": "0x2d4575003f6017950c2f7a10afb17bf2fbb648d2",
      "to": "0x9a30294499b8784b80096b6c6dd87456972eca70",
      "contractAddress": null
    },
    {
      "status": "0x1",
      "cumulativeGasUsed": "0x29de8c",
      "logs": [
        {
          "address": "0x9a30294499b8784b80096b6c6dd87456972eca70",
          "topics": [
            "0xddf252ad1be2c89b69c2b068fc378daa952ba7f163c4a11628f55a4df523b3ef",
            "0x0000000000000000000000000000000000000000000000000000000000000000",
            "0x0000000000000000000000002d4575003f6017950c2f7a10afb17bf2fbb648d2"
          ],
          "data": "0x00000000000000000000000000000000000000000000d3c21bcecceda1000000",
          "blockHash": "0xae5cd9b7f8d8b072888ee926d434788c4386cee043b9c366f595132b028877ea",
          "blockNumber": "0x31ef111",
          "transactionHash": "0xc5b06ee1f95030f66f1eaa03fda091dd457f0b7a491193e50e7fb8ae6e55e84a",
          "transactionIndex": "0x5",
          "logIndex": "0x6",
          "removed": false
        }
      ],
      "logsBloom": "0x00000000000000000000000000000000000000000000000000000000000000000000000000000000000000000000000000000000000000000000000000000000000000000000000000000008000000000001000000000000000000000000000000000000020000000000000000000800000000000000800010000010000000000000000000000000000000000000000000000000000000000000800000000000000000000000000000000000000000000000000000000000000000000000000000000002000000000000000000000000000000000000000000000000000020000000000040002000000000000000000000000000000000000000000000000000",
      "type": "0x2",
      "transactionHash": "0xc5b06ee1f95030f66f1eaa03fda091dd457f0b7a491193e50e7fb8ae6e55e84a",
      "transactionIndex": "0x5",
      "blockHash": "0xae5cd9b7f8d8b072888ee926d434788c4386cee043b9c366f595132b028877ea",
      "blockNumber": "0x31ef111",
      "gasUsed": "0x1133b",
      "effectiveGasPrice": "0x3",
      "from": "0x2d4575003f6017950c2f7a10afb17bf2fbb648d2",
      "to": "0x9a30294499b8784b80096b6c6dd87456972eca70",
      "contractAddress": null
    },
    {
      "status": "0x1",
      "cumulativeGasUsed": "0x2a9241",
      "logs": [
        {
          "address": "0x9a30294499b8784b80096b6c6dd87456972eca70",
          "topics": [
            "0x8c5be1e5ebec7d5bd14f71427d1e84f3dd0314c0f7b2291e5b200ac8c7c3b925",
            "0x0000000000000000000000002d4575003f6017950c2f7a10afb17bf2fbb648d2",
            "0x0000000000000000000000002327d3611694ead7bff9075ecc362dc982926d3c"
          ],
          "data": "0x00000000000000000000000000000000000000000000d3c21bcecceda1000000",
          "blockHash": "0xae5cd9b7f8d8b072888ee926d434788c4386cee043b9c366f595132b028877ea",
          "blockNumber": "0x31ef111",
          "transactionHash": "0x9ed351c71ec3885025e797344e48a34fe5d130c248bffe81d770bac0380d58aa",
          "transactionIndex": "0x6",
          "logIndex": "0x7",
          "removed": false
        }
      ],
      "logsBloom": "0x00000000020000000000000000000000000000000020000000000000000000000000000000000000000000000000000000000000000000000000000000200000000020000000000000000000000000000001000000000000000000000000000000000000000000000000000000000000000000000000800010000000000000000000000000000000000000000000000000000000000000000000800000000000020000000000000000000000000000000000000000000000000000000000000000000000000000000000000000000000000000000000000000000000000000000010000040002000000000000000000000000000000000000000000000000000",
      "type": "0x2",
      "transactionHash": "0x9ed351c71ec3885025e797344e48a34fe5d130c248bffe81d770bac0380d58aa",
      "transactionIndex": "0x6",
      "blockHash": "0xae5cd9b7f8d8b072888ee926d434788c4386cee043b9c366f595132b028877ea",
      "blockNumber": "0x31ef111",
      "gasUsed": "0xb3b5",
      "effectiveGasPrice": "0x3",
      "from": "0x2d4575003f6017950c2f7a10afb17bf2fbb648d2",
      "to": "0x9a30294499b8784b80096b6c6dd87456972eca70",
      "contractAddress": null
    },
    {
      "status": "0x1",
      "cumulativeGasUsed": "0x2b7ff8",
      "logs": [
        {
          "address": "0x9a30294499b8784b80096b6c6dd87456972eca70",
          "topics": [
            "0xddf252ad1be2c89b69c2b068fc378daa952ba7f163c4a11628f55a4df523b3ef",
            "0x0000000000000000000000002d4575003f6017950c2f7a10afb17bf2fbb648d2",
            "0x0000000000000000000000002327d3611694ead7bff9075ecc362dc982926d3c"
          ],
          "data": "0x00000000000000000000000000000000000000000000d3c21bcecceda1000000",
          "blockHash": "0xae5cd9b7f8d8b072888ee926d434788c4386cee043b9c366f595132b028877ea",
          "blockNumber": "0x31ef111",
          "transactionHash": "0x398f6081938a0831785fa2aeef64a337c38c93bdc30b0639f3ce158e94fed093",
          "transactionIndex": "0x7",
          "logIndex": "0x8",
          "removed": false
        },
        {
          "address": "0x2327d3611694ead7bff9075ecc362dc982926d3c",
          "topics": [
            "0x2d4fdc6f1991164156fe19d5c495895af017187803b56bddd67de1bd212fafee",
            "0x0000000000000000000000002d4575003f6017950c2f7a10afb17bf2fbb648d2"
          ],
          "data": "0x00000000000000000000000000000000000000000000d3c21bcecceda1000000",
          "blockHash": "0xae5cd9b7f8d8b072888ee926d434788c4386cee043b9c366f595132b028877ea",
          "blockNumber": "0x31ef111",
          "transactionHash": "0x398f6081938a0831785fa2aeef64a337c38c93bdc30b0639f3ce158e94fed093",
          "transactionIndex": "0x7",
          "logIndex": "0x9",
          "removed": false
        }
      ],
      "logsBloom": "0x00000000020000000000000000000000000000000020000000000000800000000000000040020000000000000000000000000000000000000000000000000000000020000000000000000008000000000001000000000000000000000000000000000020000000000000000000000000000000000000800010000010000000000000000000000000000000000000000000000000000000000000800000000000000000002000000000000000000000000000000000000000000000000000000000000002000000000000000000000000000000000000000000000000000000000000000040002000000000000000000800000000000000000000000000000000",
      "type": "0x2",
      "transactionHash": "0x398f6081938a0831785fa2aeef64a337c38c93bdc30b0639f3ce158e94fed093",
      "transactionIndex": "0x7",
      "blockHash": "0xae5cd9b7f8d8b072888ee926d434788c4386cee043b9c366f595132b028877ea",
      "blockNumber": "0x31ef111",
      "gasUsed": "0xedb7",
      "effectiveGasPrice": "0x3",
      "from": "0x2d4575003f6017950c2f7a10afb17bf2fbb648d2",
      "to": "0x2327d3611694ead7bff9075ecc362dc982926d3c",
      "contractAddress": null
    }
  ],
  "libraries": [],
  "pending": [],
  "returns": {},
  "timestamp": 1772630293209,
  "chain": 43113,
  "commit": "e8e84f9"
}